:100000000C9449070C947A070C947A070C947A079D
:100010000C947A070C947A070C947A070C947A075C
:100020000C947A070C947A070C947A070C947A074C
:100030000C947A070C947A070C947A070C947A073C
:100040000C947A070C947A070C947A070C947A072C
:100050000C947A070C947A070C947A070C947A071C
:100060000C947A070C94CF1C0C94F91C0C947A070E
:100070000C947A070C947A070C947A070C947A07FC
:100080000C947A070C947A070C947A070C947A07EC
:100090000C947A070C947A070C947A070C947A07DC
:1000A0000C947A070C947A070C947A070C947A07CC
:1000B0000C947A070C947A070C947A070C94B01B72
:1000C0000C947A070C947A070C947A070C947A07AC
:1000D0000C947A070C947A070C947A070C947A079C
:1000E0000C947A073C13A315A315A315E114A315CB
:1000F00043132815A3153C134F13A315A31565131C
:10010000A3152A14A315A3153F130314A315A813AD
:10011000A315A315A3154B150C94A3150C946513E7
:100120000C94EF090C94E1140C9428150C943C13D6
:100130000C9443130C943F130C944F130C9403141E
:100140000C94A8130C942A140C94351D0C944B1584
:100150000D0A000D0A002000436F64653A20000D6F
:100160000A0053796E63683A20000D0A002000529D
:1001700065776172643A20000D0A0020424C4B0002
:10018000205748540020424C4B0020574854002030
:100190000020204F707420286C2F72293A200020F4
:1001A00000200020204A6F792028782F792F63299A
:1001B0003A200054696D653A200020420020570023
:1001C000204200205700200020204C523A200020DE
:1001D00000200020205859433A2000543A20004281
:1001E000005700420057004C004A005400456E641E
:1001F000206F662073797374656D20737461746504
:100200002E0D0A000D0A0020204A6F79737469636D
:100210006B20616E616C6F67207468726573686FC4
:100220006C643A2020006E6F6E650D0A00424F47E5
:1002300055530D0A000D0A002020416E616C6F6756
:1002400020696E707574206265696E67206D6F6ECF
:1002500069746F7265643A2020000D0A0020206ED8
:100260006F6E650020204E455500202054494D00FA
:10027000202052574400202045787465726E616CCE
:10028000206576656E742074726967676572733A6B
:100290000078290D0A0020280020205370696B6522
:1002A0002072656A656374696F6E20746872657325
:1002B000686F6C643A2020325E002073616D706C50
:1002C0006573290D0A002062697473202028646513
:1002D000636179206C656E67746820000D0A2020C8
:1002E00056617269616E6365204C50463A20200069
:1002F00020204F46460D0A0020205370696B652070
:100300007375707072657373696F6E2066696C7453
:1003100065723A002073616D706C6573290D0A0077
:1003200020626974732020286465636179206C659C
:100330006E67746820004F46460D0A0020204E6FFD
:10034000697365207375707072657373696F6E2061
:1003500066696C7465723A2020002020416E616CE1
:100360006F672073616D706C652073697A653A20E0
:1003700020203820626974730D0A0020204C6967C0
:1003800068742073656E736F72204C2F52206172F7
:100390006520535741505045442077697468206A5E
:1003A0006F79737469636B20582F592E0D0A0020E2
:1003B000204C69676874207468726573686F6C6438
:1003C00020736C6176696E673A2020494E4445502F
:1003D000454E44454E540D0A0020204C6967687410
:1003E000207468726573686F6C6420736C617669E1
:1003F0006E673A202052494748540D0A0020204C8D
:1004000069676874207468726573686F6C642073C0
:100410006C6176696E673A20204C4546540D0A009F
:100420000D0A00202F200020204C6967687420737B
:10043000656E736F72207468726573686F6C647335
:1004400020286C6566742F7269676874293A2020C9
:100450000020204576656E7420636F6465206461BA
:1004600074612077696474683A20203136206269AB
:1004700074730D0A0020204576656E7420636F64E6
:100480006520646174612077696474683A20202073
:100490003820626974730D0A00207469636B730DF0
:1004A0000A00202F2000202F200020204576656E96
:1004B0007420636F646520646174612066726F6E7E
:1004C000742D706F7263682F7374726F62652F6220
:1004D00061636B2D706F7263683A2020002074692D
:1004E000636B730D0A00202F2000202054696D6972
:1004F0006E672070756C73652077696474682F70FF
:100500006572696F643A202000202054696D696E1D
:10051000673A20204F46460D0A00202054696D6935
:100520006E673A20204F4E0D0A00202056657262F9
:100530006F736974793A202046756C6C0D0A00203F
:1005400020566572626F736974793A20205465721F
:1005500073650D0A002020566572626F73697479A5
:100560003A20205061636B6564206865780D0A004D
:10057000207469636B730D0A0020204C6F6720693B
:100580006E74657276616C3A20200020204C6F6793
:1005900067696E673A20204F46460D0A0020204CBE
:1005A0006F6767696E673A20204F4E0D0A000D0A8B
:1005B0000044372F48342F47503031000D0A202097
:1005C0004465627567206D6F6E69746F72206F7518
:1005D000747075743A20200044362F48332F4750EA
:1005E0003030000D0A2020446562756720747269FE
:1005F0006767657220696E7075743A202000443117
:10060000322F42362F47503036000D0A20205469D1
:100610006D696E6720492F4F3A2020004431312FF9
:1006200042352F4750303500202052657761726483
:1006300020492F4F3A2020000D0A002020436C6FE4
:10064000636B207469636B732070657220736563DC
:100650006F6E643A202000207469636B730D0A008A
:10066000202054696D657374616D703A20200020FC
:100670002056657273696F6E3A20203230313831FE
:100680003231320D0A0053797374656D20737461D1
:1006900074652028616C6C2076616C7565732069C7
:1006A0006E2062617365203130293A0D0A00436F74
:1006B0006D6D616E64733A0D0A203F2C20484C50DA
:1006C00020203A202048656C702073637265656E47
:1006D0002E0D0A2020202051525920203A2020514E
:1006E000756572792073797374656D2073746174A4
:1006F000652E0D0A202045434820312F303A202016
:1007000053746172742F73746F70206563686F69BE
:100710006E672074797065642063686172616374C8
:10072000657273206261636B20746F20746865204A
:10073000686F73742E0D0A20202020494451202018
:100740003A2020446576696365206964656E746942
:100750006669636174696F6E20737472696E672075
:1007600071756572792E0D0A20202020494E49208E
:10077000203A20205265696E697469616C697A65F6
:100780002028636C6F636B20726573657420616EE3
:1007900064206576656E74732069646C6564292EC7
:1007A0000D0A20204C4F4720312F303A202053741F
:1007B0006172742F73746F70207265706F727469D8
:1007C0006E67206C6F6720646174612E0D0A2020B3
:1007D00020204C494E206E3A2020536574207468C6
:1007E000652064617461207265706F7274696E67F0
:1007F00020696E74657276616C20746F206E20744F
:1008000069636B732E0D0A4C564220322F312F3004
:100810003A20205365742064617461207265706FA2
:10082000727420766572626F736974792028322041
:100830003D2066756C6C2C2031203D2074657273F0
:10084000652C2030203D207061636B6564206865F5
:1008500078292E0D0A20202020545057206E3A204F
:1008600020536574207468652074696D696E672013
:1008700070756C7365206475726174696F6E207435
:100880006F206E207469636B732E0D0A2020202068
:10089000545050206E3A20205365742074686520AF
:1008A00074696D696E672070756C73652070657210
:1008B000696F6420746F206E207469636B732E0DF2
:1008C0000A202054494D20312F303A2020456E61B6
:1008D000626C652F64697361626C652074696D690F
:1008E0006E672070756C7365732E0D0A20202020B2
:1008F000525744206E3A202053656E642061207266
:1009000065776172642070756C7365206C617374B7
:10091000696E67206E207469636B732E0D0A202048
:1009200020204E5355206E3A202053657420746861
:1009300065206576656E7420636F646520707265EE
:100940002D7374726F62652073657475702074699D
:100950006D6520746F206E207469636B732E0D0AB1
:10096000202020204E4844206E3A202053657420D9
:10097000746865206576656E7420636F64652070A9
:100980006F73742D7374726F626520686F6C64206E
:1009900074696D6520746F206E207469636B732EAB
:1009A0000D0A202020204E5044206E3A202053650E
:1009B0007420746865206576656E7420636F646565
:1009C000207374726F62652070756C736520647536
:1009D000726174696F6E20746F206E207469636B2E
:1009E000732E0D0A202020204E4555206E3A2020DF
:1009F000456D69742076616C7565206E206F766533
:100A00007220746865206576656E7420636F646516
:100A100020706172616C6C656C20696E74657266C1
:100A20006163652E0D0A202020204E4457206E3A27
:100A30002020536574206576656E7420636F64654D
:100A4000206461746120776964746820746F206E1B
:100A50002062697473202838206F72203136292E65
:100A60000D0A43534C2F522F4920203A20204C6925
:100A70006768742073656E736F722063616C69625E
:100A8000726174696F6E20736C6176656420746F37
:100A9000206C6566742C2072696768742C206F72F4
:100AA00020696E646570656E64656E742E0D0A2033
:100AB0002043414F2F46206E3A202043616C6962EB
:100AC00072617465206C696768742073656E736FFA
:100AD0007273206F766572206E2D7469636B207758
:100AE000696E646F7720286F6E652D73686F742F41
:100AF000667265652D72756E6E696E67292E0D0AB8
:100B000020204354522F4C206E3A2020466F7263AF
:100B100065206C6566742F7269676874206C6967FC
:100B200068742073656E736F722074687265736881
:100B30006F6C642076616C756520746F206E2E0D6D
:100B40000A2020202046494C206E3A20205365740C
:100B500020616E616C6F67206E6F697365206669D6
:100B60006C7465722077696E646F7720746F2032C1
:100B70005E6E2073616D706C65732028302064692F
:100B80007361626C6573292E0D0A20202020465364
:100B900054206E3A202053657420616E616C6F673B
:100BA000207370696B652072656A656374696F6E26
:100BB000207468726573686F6C6420746F20325E95
:100BC0006E2074696D657320746865207661726942
:100BD000616E63652E0D0A20202020465357206E3B
:100BE0003A2020536574207370696B652072656AC2
:100BF000656374696F6E2076617269616E636520EA
:100C000077696E646F7720746F20325E6E20736137
:100C10006D706C65732028302064697361626C6547
:100C200073292E0D0A446562756767696E672063D4
:100C30006F6D6D616E64733A0D0A202058414C202F
:100C4000312F303A202053746172742F73746F7097
:100C50002073747265616D696E672066756C6C2DAA
:100C60007261746520616E616C6F67206C69676882
:100C7000742073616D706C6520646174612E0D0A5F
:100C80002020584A4C20312F303A20205377617071
:100C900073206F7220756E2D7377617073206A6F89
:100CA00079737469636B20585920616E64206C6994
:100CB0006768742073656E736F72204C5220696E82
:100CC000707574732E0D0A202058545220312F3025
:100CD0003A2020456E61626C652F64697361626CB5
:100CE00065207265776172642074726967676572E6
:100CF000656420627920726973696E672065646734
:100D000065206F6620475030302E0D0A2020585441
:100D10005420312F303A2020456E61626C652F647B
:100D2000697361626C652074696D696E67206163C7
:100D300074697665206F6E2068696768206C6576D7
:100D4000656C206F6E20475030302E0D0A202058E1
:100D5000544E20312F303A2020456E61626C652F51
:100D600064697361626C65206576656E7420636F7B
:100D700064652074726967676572656420627920B2
:100D8000726973696E672065646765206F662047C6
:100D90005030302E0D0A20202020584D41206E3A30
:100DA0002020456D6974206120726973696E672027
:100DB00065646765206F6E20475030312077686525
:100DC0006E20616E616C6F6720302E2E34202858A3
:100DD0002F592F5A2F4C2F52292072697365732E69
:100DE0000D0A20202020584D4420203A202044691C
:100DF0007361626C65204750303120616E616C6FA9
:100E00006720646961676E6F73746963206F7574BE
:100E10007075742E0D0A0064657669636574797067
:100E2000653A205553452053796E63426F782020F0
:100E3000737562747970653A207631202072657618
:100E40006973696F6E3A2032303138313231320D88
:100E50000A000D0A00222E205479706520223F22BC
:100E6000206F722022484C502220666F72206865E5
:100E70006C702E0D0A00556E7265636F676E697A2D
:100E8000656420636F6D6D616E643A2020220000FE
:100E9000351D11241FBECFEFD1E2DEBFCDBF00E074
:100EA0000CBF12E0A0E0B2E0E4E1F1E400E00BBF2F
:100EB00002C007900D92A03CB107D9F727E0A0EC43
:100EC000B2E001C01D92A93DB207E1F717E0C9E405
:100ED000D7E000E006C021970109802FFE010E94A3
:100EE000821DC834D10780E00807A9F70E94491D78
:100EF0000C9488200C9400008FB7F8941092C102D3
:100F00001092C00210927E0010927D00EAE7F0E09D
:100F100097E1908310927B0090EE90937C0097E98C
:100F200090838FBF08958091C10281110BC0809181
:100F30007A0086FD07C0809179008093C00281E02D
:100F40008093C1028091C10208958830910570F4A8
:100F5000FC01E25CFD4F8081806E80937C001092EA
:100F6000C1021092C00287ED80937A000895FC01BF
:100F700081E0808B1082118212821382148215828A
:100F80001682178210861186128613868AEA848753
:100F900082E0858796E0968787870895FC016587BC
:100FA0004687278781E0808B08954F925F926F92EA
:100FB0007F928F929F92AF92BF92CF92DF92EF92E9
:100FC000FF920F931F93CF93DF93FC018089C62E6E
:100FD000D12CE12CF12CD585C6858823F9F0108A17
:100FE0006487D701C60104C0880F991FAA1FBB1FC1
:100FF000DA95D2F780839183A283B38304C0CC0CAB
:10100000DD1CEE1CFF1CCA95D2F7C482D582E68295
:10101000F7821086118612861386E3C0262FDD2301
:1010200079F061E070E08FEF8D0F2B0102C0440C6E
:10103000551C8A95E2F7052C000C6608770803C05A
:10104000412C512C3201CC2309F4DDC021E030E0E9
:101050008FEF8C0F490102C0880C991C8A95E2F72A
:10106000092C000CAA08BB0884819581A681B78150
:10107000880D991DAA1DBB1D0C2E04C0B695A79501
:10108000979587950A94D2F78C159D05AE05BF05F7
:1010900048F4A7019601281B390B4A0B5B0BCA01C8
:1010A000B90106C0BC01CD016C197D098E099F09EB
:1010B0009B01AC010E94501DAB01BC010C2E04C071
:1010C00076956795579547950A94D2F7DD2391F168
:1010D0000081118122813381D701C601800F911FC8
:1010E000A21FB31F040D151D261D371D0D2E04C094
:1010F00036952795179507950A94D2F7801B910B83
:10110000A20BB30B80839183A283B383840D951DBF
:10111000A61DB71D04C0B695A79597958795DA9536
:10112000D2F7C11109C0282F1482158216821782A6
:10113000822F56C0D701C6010481158126813781CF
:10114000C00ED11EE21EF31E080D191D2A1D3B1DE7
:101150000C2E04C036952795179507950A94D2F75B
:10116000C01AD10AE20AF30AC482D582E682F78263
:10117000CC23B1F1C084D184E284F3848A019B0141
:101180000C0D1D1D2E1D3F1DC80CD91CEA1CFB1C7F
:101190000C2E04C0F694E794D794C7940A94D2F71F
:1011A0000C191D092E093F090087118722873387F3
:1011B000078404C076956795579547950A94D2F7AA
:1011C000800E911EA21EB31E04C0B694A7949794DD
:1011D0008794CA95D2F784169506A606B70608F036
:1011E00084878485DF91CF911F910F91FF90EF90BD
:1011F000DF90CF90BF90AF909F908F907F906F9037
:101200005F904F900895DD2309F48ECF812C912CAF
:10121000540140E050E0BA015BCFCF93CFB7F894D0
:101220001092520310927C0310927803109279036B
:1012300010927A0310927B0310927703109273033B
:1012400010927403109275031092760310926F033C
:101250001092700310927103109272031092510356
:101260001092500310924F0310924B0310924C03B4
:1012700010924D0310924E0310924A0310924903AC
:1012800010926E0310926A0310926B0310926C031B
:1012900010926D0340916A0350916B0360916C034F
:1012A00070916D038091320290913302A0913402CB
:1012B000B0913502840F951FA61FB71F8093660358
:1012C00090936703A0936803B09369031092480357
:1012D0001092470310924603109242031092430368
:1012E000109244031092450310926503109261031B
:1012F00010926203109263031092640310925D03D4
:1013000010925E0310925F031092600310925903D3
:1013100010925A0310925B0310925C0310925503D3
:1013200010925603109257031092580310925403D0
:1013300010925303109241031092400310923F0306
:1013400010923B0310923C0310923D0310923E0317
:1013500010923A0310923903109231031092300325
:1013600010922F0310922B0310922C0310922D0336
:1013700010922E0310922703109228031092290333
:1013800010922A0310922303109224031092250333
:1013900010922603109222031092210310921D0333
:1013A00010921E0310921F03109220031092190333
:1013B00010921A0310921B0310921C038FEF9FEFE1
:1013C0009093C3028093C2020E94B41560E070E063
:1013D00080E090E00E94C915CFBFCF9108956F9231
:1013E0007F928F929F92AF92BF92CF92DF92EF92B5
:1013F000FF920F931F93CF93DF9300D01F92CDB72F
:10140000DEB780915203811106C411E0109352039C
:101410000E94B4189B01AC016FB6789480910001D2
:1014200083FD02C080E00CC080913803811107C0A9
:101430008091360390913703892B09F49CC281E097
:1014400090918403992359F0811131C3609136033F
:1014500070913703672B09F02AC310926E036091D5
:10146000360370913703672B51F06091360370910A
:1014700037036150710970933703609336036091AD
:10148000360370913703672B11F4809338038091F2
:101490005003909151030197A9F480916F039091AB
:1014A0007003A0917103B0917203281739074A079E
:1014B0005B07D0F02D9810925103109250031092B8
:1014C000770312C080917703882371F080917303B2
:1014D00090917403A0917503B09176032817390792
:1014E0004A075B0708F00FC38091470390914803B8
:1014F000019709F044C08091660390916703A09121
:101500006803B0916903281739074A075B0708F495
:1015100048C02E981092480310924703C0906A0367
:10152000D0906B03E0906C03F0906D0380912E02DD
:1015300090912F02A0913002B0913102C80ED91EB5
:10154000EA1EFB1EC0926A03D0926B03E0926C030A
:10155000F0926D03C0906603D0906703E09068033B
:10156000F09069038C0D9D1DAE1DBF1D8093660319
:1015700090936703A0936803B093690312C08091AE
:101580006E03882371F080916A0390916B03A091A0
:101590006C03B0916D03281739074A075B0708F001
:1015A000E2C2809140039091410382309105F9F0AD
:1015B0008330910521F0019709F083C03DC08091EF
:1015C0005D0390915E03A0915F03B09160032817C3
:1015D00039074A075B0708F486C018B810920B0158
:1015E0001092410310924003109265037CC08091D9
:1015F000550390915603A0915703B09158032817B3
:1016000039074A075B0708F46EC080915303909135
:1016100054039F7790935403809353038091530313
:101620009091540398B980915303909154038093FF
:101630000B0183E090E0C7C28091590390915A0357
:10164000A0915B03B0915C03281739074A075B0739
:1016500008F449C08091530390915403906890938B
:10166000540380935303809153039091540398B98A
:10167000809153039091540380930B0182E090E09A
:10168000909341038093400381E080933F038091D6
:10169000590390915A03A0915B03B0915C0380932E
:1016A0003B0390933C03A0933D03B0933E03809192
:1016B0005303909154039F7790933A038093390397
:1016C00012C080916503882371F08091610390912D
:1016D0006203A0916303B0916403281739074A0796
:1016E0005B0708F05AC21FB7F89429833A834B83EB
:1016F0005C830E9493071FBF882309F4F0C0809188
:10170000C2029091C30297FD9FC080910002909108
:101710000102E091C202F091C302B3E0EE0FFF1F9D
:10172000BA95E1F7E80FF91FE280F380A091C202B9
:10173000B091C30213E0AA0FBB1F1A95E1F7A80FDF
:10174000B91F14960D911C911597E091C202F0916A
:10175000C30223E0EE0FFF1F2A95E1F7E80FF91F00
:1017600086819781E114F10491F10115110579F158
:10177000009769F16091C102662349F16091C0024E
:101780000E94D5078093C0028091C002F701808338
:1017900029813A814B815C81F80120833183428326
:1017A00053836091C002E091C202F091C30270E0E5
:1017B000A3E0EE0FFF1FAA95E1F780910002909140
:1017C0000102E80FF91F808191810E942316809108
:1017D000C2029091C30201969093C3028093C20209
:1017E0008091000290910102A091C202B091C302C7
:1017F000F3E0AA0FBB1FFA95E1F7A80FB91F2D91CF
:101800003C9137FF27C0A091C202B091C302E3E030
:10181000AA0FBB1FEA95E1F7A80FB91F12962D91E9
:101820003C911397232BB1F4E091C202F091C302D3
:1018300073E0EE0FFF1F7A95E1F7E80FF91F84813F
:101840009581892B39F4C4C11092C3021092C2024F
:1018500010927E038091000290910102E091C202F9
:10186000F091C30263E0EE0FFF1F6A95E1F7E80F06
:10187000F91F2081318137FD32C0A091C202B091A1
:10188000C30253E0AA0FBB1F5A95E1F7A80FB91F77
:1018900012962D913C911397232B09F1A091C2022E
:1018A000B091C30243E0AA0FBB1F4A95E1F7A80F0E
:1018B000B91F14962D913C911597232B81F0E0913F
:1018C000C202F091C30233E0EE0FFF1F3A95E1F739
:1018D000E80FF91F86819781892B09F081C18091DA
:1018E0008203882369F18091320390913303892B1D
:1018F00039F58091800390918103059720F0109233
:101900008103109280038091800390918103880F5E
:10191000991FFC01ED5EFD4F0190F081E02D70807C
:10192000FC01E95FFD4F0190F081E02D8081918104
:10193000781608F46CC180910201806180930201E5
:101940008091320390913303892B49F080913203C7
:1019500090913303019790933303809332038091E6
:10196000320390913303892B11F4709234036FBECC
:101970001092520350C18AE090E090933703809315
:10198000360380918503882329F08091770388238B
:1019900009F46EC080918303882309F450CD8091AF
:1019A000650381114CCDDA01C9010196A11DB11D5C
:1019B0008093610390936203A0936303B0936403E5
:1019C000C0906103D0906203E0906303F0906403E1
:1019D00080912A0290912B02A0912C02B0912D02AD
:1019E0008C0D9D1DAE1DBF1D8093590390935A030E
:1019F000A0935B03B0935C03C0905903D0905A034B
:101A0000E0905B03F0905C038091260290912702A6
:101A1000A0912802B09129028C0D9D1DAE1DBF1D05
:101A20008093550390935603A0935703B0935803A4
:101A3000C0905503D0905603E0905703F0905803A0
:101A40008091220290912302A0912402B09125025C
:101A50008C0D9D1DAE1DBF1D80935D0390935E0395
:101A6000A0935F03B093600381E080936503E8CCAB
:101A7000209373033093740340937503509376035C
:101A80008091730390917403A0917503B0917603D4
:101A900088519C4FAF4FBF4F80936F03909370035B
:101AA000A0937103B09372031093770373CF909157
:101AB0006E039111D4CC20936A0330936B0340934F
:101AC0006C0350936D0380906A0390906B03A09019
:101AD0006C03B0906D03C0903202D0903302E0905E
:101AE0003402F0903502C80CD91CEA1CFB1CC092D1
:101AF0006603D0926703E0926803F092690391E075
:101B000090936E03ACCC2D9A81E090E090935103BA
:101B10008093500380934F038091730390917403DB
:101B2000A0917503B091760380934B0390934C037F
:101B3000A0934D03B0934E0380916F039091700377
:101B4000A0917103B0917203C0907303D09074039D
:101B5000E0907503F09076038C199D0990934A03E9
:101B600080934903C1CC2E9A81E090E09093480382
:101B7000809347038093460380916A0390916B039F
:101B8000A0916C03B0916D03809342039093430343
:101B9000A0934403B093450304CD809153039091E7
:101BA00054039F779093540380935303809153037E
:101BB0009091540398B9809153039091540380936A
:101BC0000B0181E090E090934103809340038BCD23
:101BD0001092C3021092C20281E080937E033ACE3B
:101BE0001FB7F894E091C202F091C30283E0EE0FB8
:101BF000FF1F8A95E1F78091000290910102E80FA2
:101C0000F91F808191810E94A5071FBF68CE809136
:101C100002018F7E93CE0F900F900F900F90DF9167
:101C2000CF911F910F91FF90EF90DF90CF90BF90D9
:101C3000AF909F908F907F906F9008952F923F92DA
:101C40004F925F926F927F928F929F92AF92BF92CC
:101C5000CF92DF92EF92FF920F931F93CF93DF9378
:101C6000CDB7DEB767970FB6F894DEBF0FBECDBF16
:101C7000AFB6F8940E94B4186B017C0180917C038C
:101C8000882359F18091780390917903A0917A0388
:101C9000B0917B03C816D906EA06FB06F0F0409126
:101CA00078035091790360917A0370917B0380915E
:101CB000360290913702A0913802B0913902840F18
:101CC000951FA61FB71F8093780390937903A09365
:101CD0007A03B0937B0311E001C010E040914F0301
:101CE0004A8340904B0350904C0360904D0370909A
:101CF0004E034091490350914A035C834B831092F9
:101D00004F03509146035D87409142035091430336
:101D100060914403709145034E875F87688B798B90
:101D20001092460350913F035A8B40913B035091D0
:101D30003C0360913D0370913E0349875A876B874E
:101D40007C878090390390903A03809187038823A1
:101D500011F0892C992410923F03B0903103009127
:101D6000300350912F03598340917E034B8B109287
:101D70007E03509122035F8B409121034C8B209076
:101D8000A4033090A5032091A2033091A303609196
:101D9000A6037091A7037E8B6D8BAFBE80917C03F1
:101DA000811106C08D899E89892B09F449C041C0E3
:101DB0008091360290913702A0913802B091390299
:101DC000AC01BD0140955095609570954D835E8343
:101DD0006F8378870097A105B10521F340917803BF
:101DE0005091790360917A0370917B03C416D506F4
:101DF000E606F706B8F24D815E816F8178854C1555
:101E00005D056E057F0570F240917803509179036E
:101E100060917A0370917B03480F591F6A1F7B1FE3
:101E2000409378035093790360937A0370937B0314
:101E3000D1CF6D897E896130710519F4910101C09E
:101E40001901112309F4C7C04F89842F90E011E0D4
:101E50002816390608F010E05C89852F90E0AA2446
:101E6000A3942817390708F0A12C809120029091A3
:101E70002102009719F0019789F16CC08BEE91E077
:101E80000E942E19C701B6010E94A61A89EE91E0A0
:101E90000E942E198B2D0E94FB1A802F0E94FB1A84
:101EA00089810E94FB1A87EE91E00E942E198F898A
:101EB0000E94FB1A8C890E94FB1A112319F085EEEF
:101EC00091E002C083EE91E00E942E19AA2019F041
:101ED00081EE91E07AC08FED91E077C08BED91E0DB
:101EE0000E942E19C701B6010E94A61A83ED91E047
:101EF0000E942E198B2D0E94FB1A81ED91E00E9409
:101F00002E19802F0E94FB1A8FEC91E00E942E194F
:101F100089810E94FB1A88EC91E00E942E198F891A
:101F20000E94FB1A86EC91E00E942E198C890E9477
:101F3000FB1A112319F083EC91E002C080EC91E0D0
:101F40000E942E19AA2019F08DEB91E03EC08AEB79
:101F500091E03BC083EB91E00E942E19C701B601CE
:101F60000E94A61A83EA91E00E942E198B2D0E94EE
:101F7000FB1A81EA91E00E942E19802F0E94FB1A21
:101F80008FE991E00E942E1989810E94FB1A81E954
:101F900091E00E942E198F890E94FB1A8FE891E030
:101FA0000E942E198C890E94FB1A112319F08AE8CD
:101FB00091E002C085E891E00E942E19AA2019F054
:101FC00080E891E002C08BE791E00E942E1988E73B
:101FD00091E00E942E194A814423A1F08FE691E0FE
:101FE0000E942E19C301B2010E94A61A8DE691E04B
:101FF0000E942E198B819C810E94D61A8AE691E05C
:102000000E942E195D85552371F082E691E00E94B1
:102010002E196E857F85888999890E94A61A8FE579
:1020200091E00E942E194A894423A9F088E591E0A5
:102030000E942E1969857A858B859C850E94A61A37
:1020400086E591E00E942E19C4010E94D61A83E50C
:1020500091E00E942E1980918603882341F15B89CB
:10206000552329F1C6010E94D61A8F890E94FB1AB6
:102070008C890E94FB1A80E591E067960FB6F89470
:10208000DEBF0FBECDBFDF91CF911F910F91FF90AB
:10209000EF90DF90CF90BF90AF909F908F907F9008
:1020A0006F905F904F903F902F900C942E196796F1
:1020B0000FB6F894DEBF0FBECDBFDF91CF911F9159
:1020C0000F91FF90EF90DF90CF90BF90AF909F90D7
:1020D0008F907F906F905F904F903F902F900895DA
:1020E0000F931F93CF93DF93C82FD62F142F0FB7C3
:1020F000F894242F462F682F88E093E00E94CE07A3
:10210000212F4D2F6C2F87EF92E00E94CE07212FB9
:102110004D2F6C2F86EE92E00E94CE07212F4D2F7F
:102120006C2F85ED92E00E94CE07212F4D2F6C2F52
:1021300084EC92E00E94CE070FBFDF91CF911F91F8
:102140000F910895882399F086E492E0909301021C
:102150008093000210923D0210923C0281E090E0D8
:1021600090933B0280933A0280937D03089586E723
:1021700092E0909301028093000284E090E09093BB
:102180003D0280933C0285E090E090933B02809377
:102190003A0210927D030895259A269A9D9A2D98C9
:1021A0002E98A59A18B810920B018FEF87B98093DB
:1021B0000A01A1E0B1E08C91877F8C93E2E0F1E02D
:1021C0008081886080838C9180618C9380818F7EF8
:1021D000808380E00C94A21081E080937F0320E054
:1021E00032EC41E050E060E074E284EF90E00E9465
:1021F000F01B0C947017CF93DF930E94C618EC016C
:10220000892B91F080917F03882339F0CE010E94C1
:10221000131982E59EE00E942E19CE010E946E18CD
:10222000DF91CF910C94DE18DF91CF9108958EEA63
:1022300096E00C942E193F924F925F926F927F928C
:102240008F929F92AF92BF92CF92DF92EF92FF92C6
:102250000F931F93CF93DF938FB7F89430907C0345
:1022600040906E0350901F0270901E0260901D02FD
:10227000E090A403F090A5030091A2031091A303A2
:102280008090A6039090A703B0908503C09084032C
:10229000D0908303A0908203C0918003D0918103EA
:1022A0008FBF86E896E00E942E198FE696E00E9486
:1022B0002E1980E696E00E942E190E94A8180E940E
:1022C000461A87E596E00E942E198BE396E00E945D
:1022D0002E1960E177E280E090E00E94461A88E3E0
:1022E00096E00E942E1988E296E00E942E198CE159
:1022F00096E00E942E198AE096E00E942E198EEF39
:1023000095E00E942E1983EE95E00E942E1988ED2B
:1023100095E00E942E198CEB95E00E942E1981EB1E
:1023200095E00E942E198EEA95E00E942E19332026
:1023300019F08DE995E002C08BE895E00E942E1916
:1023400089E795E00E942E1960913602709137025C
:1023500080913802909139020E94461A80E795E0F8
:102360000E942E198091200290912102009729F05D
:10237000019731F48FE395E005C085E595E002C053
:102380008AE295E00E942E19442019F08AE195E036
:1023900002C089E095E00E942E198AEE94E00E9426
:1023A0002E19609132027091330280913402909123
:1023B00035020E94461A86EE94E00E942E19609122
:1023C0002E0270912F0280913002909131020E9472
:1023D000461A8DED94E00E942E198AEA94E00E943C
:1023E0002E1960912A0270912B0280912C029091FB
:1023F0002D020E94461A86EA94E00E942E196091EE
:1024000026027091270280912802909129020E9451
:10241000461A82EA94E00E942E196091220270917D
:10242000230280912402909125020E94461A89E994
:1024300094E00E942E1980918703882319F085E784
:1024400094E002C081E594E00E942E1987E294E0B6
:102450000E942E19B70180E090E00E94461A83E2A4
:1024600094E00E942E19B80180E090E00E94461A84
:1024700080E294E00E942E1981E08816910419F4FC
:102480008DEF93E007C0892819F489ED93E002C02D
:102490008FEA93E00E942E1980917D03882321F01A
:1024A0008BE793E00E942E198AE593E00E942E1993
:1024B0008CE393E00E942E19511003C086E393E051
:1024C00019C0652D70E080E090E00E94461A80E21D
:1024D00093E00E942E1961E070E002C0660F771F42
:1024E0005A94E2F7072E000C880B990B0E94461AAB
:1024F00084E193E00E942E1988EF92E00E942E1949
:10250000711003C080EF92E03CC08CED92E00E941D
:102510002E19672D70E080E090E00E94461A86EC4C
:1025200092E00E942E1901E010E0B80102C0660F8F
:10253000771F7A94E2F7072E000C880B990B0E9404
:10254000461A8AEB92E00E942E1989E992E00E94D5
:102550002E19662D70E080E090E00E94461A86E910
:1025600092E00E942E19B80102C0660F771F6A948C
:10257000E2F7072E000C880B990B0E94461A81E99E
:1025800092E00E942E1986E792E00E942E19BB204D
:1025900021F080E792E00E942E19CC2021F08AE6FB
:1025A00092E00E942E19DD2021F084E692E00E9444
:1025B0002E19B11008C0C11006C0D11004C08DE59D
:1025C00092E00E942E198AE592E00E942E1988E37B
:1025D00092E00E942E19AA2071F0C53048F4DD2740
:1025E000CE5FDD4F88810E94331A85E392E005C0FB
:1025F0008DE292E002C086E292E00E942E1987E00E
:1026000092E00E942E19609111027091120280E0F6
:1026100090E00E94461A84E092E00E942E198DEE0E
:1026200091E0DF91CF911F910F91FF90EF90DF909C
:10263000CF90BF90AF909F908F907F906F905F9062
:102640004F903F900C942E190F931F93CF93DF93CD
:10265000DC01EC910E2FEE0F110B220B330BF80166
:10266000FF97EA31F10508F06EC2EB018827EE58BA
:10267000FF4F8F4F0C94821D0E94171102C00E94C1
:102680001B1180E061C2442309F45DC2CD2B19F413
:1026900010927F03F6CF81E080937F03F2CF1196F3
:1026A0008C91843429F487E19EE00E942E19E9CFB1
:1026B0008E3409F048C2CFB7F8940E940D090E94E9
:1026C0009C180E94CC10CFBF6AC1442309F43BC2BE
:1026D00011968C91893461F4CB01A0E0B0E0809335
:1026E000360290933702A0933802B0933902C9CFD3
:1026F0008635B1F4CD2B29F41092210210922002DC
:10270000C0CF6130710539F082E090E090932102F2
:1027100080932002B6CF7093210260932002B1CF44
:102720008F3409F010C21FB7F894CD2B71F00E94BE
:10273000B418609378037093790380937A0390932D
:102740007B0381E080937C0329C110927C0326C126
:10275000442309F4F8C111968C9111978035F9F44E
:1027600012968C91873561F4CB01A0E0B0E08093A4
:10277000320290933302A0933402B093350281CF9A
:10278000803509F0E0C1CB01A0E0B0E080932E02DB
:1027900090932F02A0933002B093310272CF89340C
:1027A00009F0D1C11FB7F894CD2B51F10E94B41894
:1027B00060936A0370936B0380936C0390936D0333
:1027C00040916A0350916B0360916C0370916D03AB
:1027D0008091320290913302A0913402B09135027F
:1027E000840F951FA61FB71F8093660390936703FE
:1027F000A0936803B093690381E080936E03CEC019
:1028000010926E03CBC0442309F49DC11FB7F89406
:102810000E94B418609373037093740380937503DC
:10282000909376038091730390917403A091750344
:10283000B09176038C0F9D1FA11DB11D80936F0376
:1028400090937003A0937103B093720381E080931F
:102850007703A4C0442309F476C111968C91833583
:1028600061F4CB01A0E0B0E080932A0290932B02A8
:10287000A0932C02B0932D0204CF883461F4CB01D5
:10288000A0E0B0E08093220290932302A093240260
:10289000B0932502F6CE803561F4CB01A0E0B0E024
:1028A0008093260290932702A0932802B0932902D6
:1028B000E8CE853409F074C01FB7F8940E94B418AC
:1028C000DC01CB010196A11DB11D809361039093A2
:1028D0006203A0936303B09364034091610350913A
:1028E0006203609163037091640380912A02909166
:1028F0002B02A0912C02B0912D02840F951FA61FD0
:10290000B71F8093590390935A03A0935B03B0932E
:102910005C034091590350915A0360915B0370919D
:102920005C038091260290912702A0912802B09129
:102930002902840F951FA61FB71F809355039093FC
:102940005603A0935703B0935803409155035091F9
:102950005603609157037091580380912202909121
:102960002302A0912402B0912502840F951FA61F77
:10297000B71F80935D0390935E03A0935F03B093B2
:10298000600380918703882311F0DC2FCC27D0933C
:102990005403C093530381E0809365031FBF71CE3E
:1029A000843409F0D0C06830710521F481E080934F
:1029B000870367CE6031710509F0C5C010928703A7
:1029C00060CE1FB7F89411968C9111978335C1F49E
:1029D00012968C91823529F41092A7031092A603C7
:1029E00021C08C3419F481E090E005C0893409F0ED
:1029F0004FC082E090E09093A7038093A60312C09B
:102A0000813491F4442309F443C012968C918F349D
:102A100019F481E090E004C08634D1F582E090E0C2
:102A20000E94C91580E035C08435E1F7442381F167
:102A300012968C91823529F47093A3036093A203BC
:102A4000F1CF8C3429F57093A5036093A403EACFEA
:102A5000442309F478C06930710510F0C8E0D0E073
:102A60001FB7F89411968C911197893419F4C0937B
:102A70001F0271C0833561F412968C91843519F46C
:102A8000C0931D0268C0873519F4C0931E0263C04D
:102A900081E01FBF57C0442309F455C011968C91A3
:102AA0001197813449F4CD2B19F410928603E9CDA6
:102AB00081E080938603E5CD8A3441F4CD2B11F477
:102AC00080E001C081E00E94A210DBCD8435F9F4E2
:102AD0009FB7F89412968C91823539F481E0CD2B12
:102AE00009F480E08093850329C0843539F481E0BE
:102AF000CD2B09F480E08093840320C08E3401F54F
:102B000081E0CD2B09F480E08093830317C08D34DE
:102B1000D1F49FB7F89412968C91843419F41092E2
:102B200082030CC0813461F46530710548F4709300
:102B300081036093800381E08093820380E001C081
:102B400081E09FBF01C081E091E08927DF91CF91B3
:102B50001F910F91089540911D0260911E02809176
:102B60001F020E9470105ECF8FEF9FEF9093A5031E
:102B70008093A4039093A3038093A2031092A103D4
:102B80001092A00382E090E09093A7038093A603A5
:102B90000895CF92DF92EF92FF929093A1038093DA
:102BA000A003892B11F460E070E06B01E12CF12CA3
:102BB000C0929C03D0929D03E0929E03F0929F03EB
:102BC0000E94B418609398037093990380939A03BA
:102BD00090939B038091980390919903A0919A03FD
:102BE000B0919B03C80ED91EEA1EFB1EC09298032B
:102BF000D0929903E0929A03F0929B03109294036F
:102C000010929503109296031092970310929003DE
:102C100010929103109292031092930310928C03DE
:102C200010928D0310928E0310928F0310928803DE
:102C30001092890310928A0310928B03FF90EF90F9
:102C4000DF90CF9008950F931F93CF93DF938C0164
:102C5000EB018091A0039091A103892B09F41DC180
:102C60008091980390919903A0919A03B0919B034E
:102C7000281739074A075B0708F4ABC08091900317
:102C800090919103A0919203B0919303892B8A2B89
:102C90008B2B31F12091900330919103409192035D
:102CA00050919303609194037091950380919603E2
:102CB000909197030E94601D209394033093950395
:102CC00040939603509397038091940390919503BA
:102CD000A0919603B09197039093A5038093A403CA
:102CE0008091900390919103A0919203B0919303EE
:102CF000892B8A2B8B2B31F120918803309189030A
:102D000040918A0350918B0360918C0370918D03E5
:102D100080918E0390918F030E94601D20938C03FD
:102D200030938D0340938E0350938F0380918C03D7
:102D300090918D03A0918E03B0918F039093A30384
:102D40008093A2031092940310929503109296031D
:102D50001092970310929003109291031092920395
:102D60001092930310928C0310928D0310928E0395
:102D700010928F03109288031092890310928A0395
:102D800010928B038091A0039091A103019729F4E5
:102D90001092A1031092A0031CC080919C039091FB
:102DA0009D03A0919E03B0919F0340919803509181
:102DB000990360919A0370919B03480F591F6A1FF2
:102DC0007B1F409398035093990360939A037093E9
:102DD0009B038091A0039091A103892B09F45DC00E
:102DE00080913C0290913D028017910741F58091BE
:102DF000940390919503A0919603B09197038C0F43
:102E00009D1FA11DB11D8093940390939503A093E2
:102E10009603B09397038091900390919103A091B2
:102E20009203B09193030196A11DB11D809390036D
:102E300090939103A0939203B09393032EC080913B
:102E40003A0290913B028017910739F580918C03EB
:102E500090918D03A0918E03B0918F038C0F9D1FD5
:102E6000A11DB11D80938C0390938D03A0938E03BD
:102E7000B0938F038091880390918903A0918A0376
:102E8000B0918B030196A11DB11D8093880390938F
:102E90008903A0938A03B0938B03DF91CF911F9195
:102EA0000F9108950E947C070E940D090E94CC108A
:102EB0000E94EC100C948E180E94FB100C941E0EB5
:102EC000EDEAF3E01082118212821092AC031092AC
:102ED000A8031092A9031092AA031092AB030895BD
:102EE0000C9460178F929F92AF92BF92CF92DF9215
:102EF000EF92FF920F931F93CF93DF931F921F9236
:102F0000CDB7DEB789839A830E9460178981082F25
:102F10009A81192FB12C812C912CE0E0F0E0AA24A9
:102F2000A394D8016D918D01662309F47FC0E2302E
:102F3000F10511F134F4309759F0E130F105A1F0C9
:102F400038C0E330F105E9F0E430F10509F131C0B2
:102F5000862F8F7D81548A31F0F0613254F16F33C6
:102F6000E9F4BB24B3941AC0862F8F7D81548A3133
:102F700000F16132B4F012C080ED860F8A30A0F00B
:102F800007C080ED860F8A30A0F0613284F006C061
:102F900061327CF003C0E1E0F0E00BC0E5E0F0E07E
:102FA00008C0E2E0F0E005C0E3E0F0E002C0E4E0E9
:102FB000F0E0E130F10531F1E330F10509F0B1CF96
:102FC000A092AC0380ED860FC82E880FDD08EE08B6
:102FD000FF082091A8033091A9034091AA035091C2
:102FE000AB03AAE0B0E00E948A1DC60ED71EE81E01
:102FF000F91EC092A803D092A903E092AA03F0920E
:10300000AB038FCF8FE9860F8A3108F4605283E0DB
:103010008816910444F4D401A355BC4F6C93AFEFD0
:103020008A1A9A0A7ECFE5E0F0E07BCFBB2061F000
:103030000E94601788E48093AD038CE48093AE0314
:1030400080E58093AF0310C0309749F0B3E08B1652
:10305000910441F00E94601782E090E007C080E098
:1030600090E004C03597B1F381E090E00F900F90AD
:10307000DF91CF911F910F91FF90EF90DF90CF9054
:10308000BF90AF909F908F9008950F931F93CF9311
:10309000DF93D82FC92F86E79EE00E942E190D2FAF
:1030A0001C2FF801C1918F01CC2381F080EE8C0F91
:1030B0008F3510F48C2F07C08CE30E94331A8C2FAD
:1030C0000E94FB1A8EE30E94331AEBCF85E59EE047
:1030D000DF91CF911F910F910C942E19CF93DF9315
:1030E0000097C9F0EC010E9472178130910589F4B4
:1030F0006091A8037091A9034091AC038DEA93E01D
:103100000E942413811107C0CE01DF91CF910C944E
:1031100045180297C9F3DF91CF91089520E137E276
:1031200040E050E060E074E284EF90E00E94531BC6
:103130008FEE99E00C94BD188FB7F8941092B203FB
:103140001092B3031092B4031092B5038FBF089589
:103150002FB7F8946091B2037091B3038091B403D8
:103160009091B5032FBF08956091B2037091B3039E
:103170008091B4039091B50308959C019FB7F89492
:103180003093B1032093B0039FBF08952FB7F894F5
:103190008091D0039091D1039695982F8827979589
:1031A00087958C529C4F4091D2035091D3031416B3
:1031B000150614F080E090E02FBF08954FB7F89403
:1031C0002091D2033091D3038091D0039091D10309
:1031D0001216130614F04FBF089521503109309391
:1031E000D3032093D2030196877099279093D1033C
:1031F0008093D003F0CF9FB7F89481E02091CA0369
:103200003091CB03232B09F480E09FBF0895CF9327
:10321000C8EC0E94FB18882321F08C2F8A95F1F7C7
:10322000F8CFCF9108951F93CF93DF93EC010E94C5
:103230000719209779F01FB7F894D093CB03C09368
:10324000CA031092C9031092C8031092C7030E94C8
:10325000CB1C1FBFDF91CF911F9108951F93CF9378
:10326000DF93EC010E940719209781F01FB7F894B3
:10327000D093CB03C093CA031092C9031092C80322
:1032800081E08093C7030E94CB1C1FBFDF91CF91C9
:103290001F91089580E090E0FC01F695FE2FEE2747
:1032A000F795E795EC52FC4F108201968830910516
:1032B00099F71092D3031092D2031092D103109277
:1032C000D0031092CF031092CE031092CD03109230
:1032D000CC031092CB031092CA031092C903109230
:1032E000C8031092C7031092C60308959091D407A3
:1032F000992319F08A3019F476C08A3019F08D308C
:1033000009F04EC09091C6032091CC033091CD03BB
:10331000992321F02115310509F45FC020383105CA
:1033200034F02FE730E03093CD032093CC0320918D
:10333000CE033091CF03F901F695FE2FEE27F795D6
:10334000E795EC52FC4F4091CC035091CD03E40F34
:10335000F51F10824091D2035091D303473051059D
:1033600074F42F5F3F4F277033273093CF032093A0
:10337000CE034F5F5F4F5093D3034093D203E0914E
:10338000CE03F091CF03F695FE2FEE27F795E79544
:10339000EC52FC4F10821092CD031092CC031DC052
:1033A0002091CC033091CD0320383105E4F4E09135
:1033B000CE03F091CF03F695FE2FEE27F795E79514
:1033C000A9014C525C4FE40FF51F80832F5F3F4FE4
:1033D0003093CD032093CC0306C08D3021F481E0DF
:1033E0008093D40708951092D4070895DC0140918A
:1033F000CA035091CB034115510559F18091C70380
:103400002091C8033091C903882351F0420F531F04
:10341000052E000C660B770B6BBFFA01479104C0B9
:10342000FA01E20FF31F408141110BC01092CB0350
:103430001092CA031092C9031092C8031092C703D6
:1034400009C02F5F3F4F3093C9032093C80381E029
:1034500002C040E080E04C9308959FB7F8948093B9
:10346000C6039FBF0895CF93DF931F92CDB7DEB7FA
:1034700089830E940719E6EBF3E08981808311823A
:10348000CF010F90DF91CF910C941319CF93DF935D
:1034900000D01F92CDB7DEB769837A838B839C837C
:1034A0000E9407199C819F938B818F937A817F93D0
:1034B00069816F9386EA92E09F938F931F9280E1D8
:1034C0008F9386EB93E09F938F930E94A41D0FB67A
:1034D000F894DEBF0FBECDBF86EB93E00F900F9048
:1034E0000F900F90DF91CF910C941319CF93DF932E
:1034F00000D01F92CDB7DEB769837A838B839C831C
:103500000E9407199C819F938B818F937A817F936F
:1035100069816F938AEA92E09F938F931F9280E173
:103520008F9386EB93E09F938F930E94A41D0FB619
:10353000F894DEBF0FBECDBF86EB93E00F900F90E7
:103540000F900F90DF91CF910C941319CF93DF93CD
:1035500000D01F92CDB7DEB769837A838B839C83BB
:103560000E9407199C819F938B818F937A817F930F
:1035700069816F938EEA92E09F938F931F9280E10F
:103580008F9386EB93E09F938F930E94A41D0FB6B9
:10359000F894DEBF0FBECDBF86EB93E00F900F9087
:1035A0000F900F90DF91CF910C941319CF93DF936D
:1035B000EC010E940719CE011F921F929F93CF9397
:1035C00084EB92E09F938F931F9280E18F9386EB21
:1035D00093E09F938F930E94A41D8DB79EB70A9688
:1035E0000FB6F8949EBF0FBE8DBF86EB93E0DF91C0
:1035F000CF910C941319CF93DF931F92CDB7DEB701
:1036000089830E9407191F921F921F9289818F93AD
:103610008AEB92E09F938F931F9280E18F9386EBCA
:1036200093E09F938F930E94A41D0FB6F894DEBF82
:103630000FBECDBF86EB93E00F90DF91CF910C943E
:103640001319F89415BE11B814B817B81AB81DB8E4
:1036500010BA13BA109201011092040110920701DE
:1036600010920A0112B815B818B81BB81EB811BAD2
:1036700014BA1092020110920501109208011092E2
:103680000B0120E030E0A90160E070E0CB010E9476
:10369000531B20E030E0A90160E070E0CB010E9404
:1036A000F01B7894089510926E0010926F001092A3
:1036B0007000109271001092720010927300E2E09C
:1036C000E4BD15BCE093B0001092B10010928000F0
:1036D000E8E0E093810010929000E0939100109256
:1036E000A000E093A10010922001E093210110922C
:1036F000B2031092B3031092B4031092B503109268
:10370000B1031092B003211531054105510539F17E
:103710000E94601D211531054105510571F02150B0
:103720003109410951092115310581E04807510549
:1037300020F02FEF3FEF40E050E0BB27A52F942F64
:10374000832F809329012093280110922501109244
:10375000240189E08093210182E080937300089521
:103760001F920F920FB60F9211240BB60F922F9348
:103770003F934F935F936F937F938F939F93AF93F9
:10378000BF93EF93FF938091B2039091B303A09105
:10379000B403B091B5030196A11DB11D8093B2038E
:1037A0009093B303A093B403B093B503E091B00337
:1037B000F091B103309709F01995FF91EF91BF9106
:1037C000AF919F918F917F916F915F914F913F91B9
:1037D0002F910F900BBE0F900FBE0F901F9018955A
:1037E0004F925F926F927F928F929F92AF92BF9211
:1037F000CF92DF92EF92FF92CF93DF93CDB7DEB7F8
:1038000028970FB6F894DEBF0FBECDBF2B013C0149
:1038100049015A012115310541055105A1F41092C4
:10382000D5071092D6071092D7071092D8078FB7F6
:10383000F89492E09093C0001092C10096E09093AB
:10384000C2008FBF8AC0E3E0220F331F441F551F01
:10385000EA95D1F70E94601D69017A01232B242B80
:10386000252B89F081E0C81AD108E108F108C114BC
:1038700090E1D906E104F10430F0CC24CA947FE051
:10388000D72EE12CF12CD701C6010196A11DB11D47
:1038900089839A83AB83BC839C01AD0163E0220FD3
:1038A000331F441F551F6A95D1F7C301B2010E940F
:1038B000601D2D833E834F8358872093D507309317
:1038C000D6074093D7075093D8079FEFC9169FE0BC
:1038D000D906E104F10479F1D701C6010296A11DD0
:1038E000B11D9C01AD0193E0220F331F441F551FF2
:1038F0009A95D1F7C301B2010E94601D4D805E8090
:103900006F807884481859086A087B08821A930ADD
:10391000A40AB50A84149504A604B70460F420939D
:10392000D5073093D6074093D7075093D807C9805F
:10393000DA80EB80FC80BFB6F8941092C100BB2700
:10394000AF2D9E2D8D2D8093C500C092C4000E9486
:103950004A1988E98093C100BFBE28960FB6F89433
:10396000DEBF0FBECDBFDF91CF91FF90EF90DF9014
:10397000CF90BF90AF909F908F907F906F905F900F
:103980004F9008956091D5077091D6078091D70721
:103990009091D807089588EB8093C10008951F92F5
:1039A0000F920FB60F9211240BB60F922F933F93E5
:1039B0004F935F936F937F938F939F93AF93BF9337
:1039C000EF93FF938091C6000E947619FF91EF91CB
:1039D000BF91AF919F918F917F916F915F914F9127
:1039E0003F912F910F900BBE0F900FBE0F901F9025
:1039F00018951F920F920FB60F9211240BB60F92CB
:103A00002F933F934F935F936F937F938F939F93E6
:103A1000AF93BF93EF93FF93CF93DF931F92CDB7F5
:103A2000DEB71982CE0101960E94F619882321F093
:103A300089818093C60003C088E98093C1000F90FC
:103A4000DF91CF91FF91EF91BF91AF919F918F91B6
:103A50007F916F915F914F913F912F910F900BBE8E
:103A60000F900FBE0F901F90189588E093E00E9472
:103A7000B70787EF92E00E94B70786EE92E00E94B8
:103A8000B70785ED92E00E94B70784EC92E00C94B2
:103A9000B7070E94211B0E9452170E945C17FDCF9E
:103AA000DB018F939F930E948A1DBF91AF91A29FCC
:103AB000800D911DA39F900DB29F900D112408952C
:103AC000A1E21A2EAA1BBB1BFD010DC0AA1FBB1F22
:103AD000EE1FFF1FA217B307E407F50720F0A21B94
:103AE000B30BE40BF50B661F771F881F991F1A9401
:103AF00069F760957095809590959B01AC01BD012B
:103B0000CF010895EE0FFF1F881F8BBF0790F6911E
:103B1000E02D19940E94951DA59F900DB49F900DC6
:103B2000A49F800D911D11240895A29FB001B39F01
:103B3000C001A39F700D811D1124911DB29F700DB6
:103B4000811D1124911D08950F931F93CF93DF932F
:103B5000CDB7DEB72E970FB6F894DEBF0FBECDBF40
:103B60000E891F89888D998D26E02C831A830983FD
:103B700097FF02C080E090E801979E838D83AE019D
:103B8000445E5F4F6A8D7B8DCE0101960E94E11DE0
:103B90004D815E8157FD0AC02F813885421753073A
:103BA0000CF49A01F801E20FF31F10822E960FB663
:103BB000F894DEBF0FBECDBFDF91CF911F910F9163
:103BC00008952F923F924F925F926F927F928F92C1
:103BD0009F92AF92BF92CF92DF92EF92FF920F939C
:103BE0001F93CF93DF93CDB7DEB72C970FB6F89422
:103BF000DEBF0FBECDBF7C016B018A01FC011782C5
:103C00001682838181FFBDC1CE0101964C01F7016F
:103C10009381F60193FD859193FF81916F01882334
:103C200009F4ABC1853239F493FD859193FF8191FD
:103C30006F01853229F4B70190E00E94F21FE7CFAF
:103C4000512C312C20E02032A0F48B3269F030F47A
:103C5000803259F0833269F420612CC08D3239F002
:103C6000803339F4216026C02260246023C028609C
:103C700021C027FD27C030ED380F3A3078F426FFF9
:103C800006C0FAE05F9E300D1124532E13C08AE067
:103C9000389E300D1124332E20620CC08E3221F458
:103CA00026FD6BC1206406C08C3611F4206802C06A
:103CB000883641F4F60193FD859193FF81916F0160
:103CC0008111C1CF982F9F7D9554933028F40C5FBC
:103CD0001F4FFFE3F9830DC0833631F0833771F056
:103CE000833509F05BC022C0F801808189830E5FB3
:103CF0001F4F44244394512C540115C03801F2E065
:103D00006F0E711CF801A080B18026FF03C0652DE5
:103D100070E002C06FEF7FEFC5012C870E94E71FA4
:103D20002C0183012C852F77222E17C03801F2E059
:103D30006F0E711CF801A080B18026FF03C0652DB5
:103D400070E002C06FEF7FEFC5012C870E94DC1F7F
:103D50002C012C852068222E830123FC1BC0832D7F
:103D600090E048165906B0F4B70180E290E00E9456
:103D7000F21F3A94F4CFF50127FC859127FE81913B
:103D80005F01B70190E00E94F21F31103A94F1E018
:103D90004F1A51084114510471F7E5C0843611F0EF
:103DA000893639F5F80127FF07C06081718182816A
:103DB00093810C5F1F4F08C060817181072E000C3A
:103DC000880B990B0E5F1F4F2F76722E97FF09C03D
:103DD00090958095709561957F4F8F4F9F4F20688C
:103DE000722E2AE030E0A4010E942A20A82EA818F2
:103DF00044C0853729F42F7EB22E2AE030E025C05A
:103E0000F22FF97FBF2E8F36C1F018F4883579F084
:103E1000B4C0803719F0883721F0AFC02F2F206150
:103E2000B22EB4FE0DC08B2D8460B82E09C024FFC5
:103E30000AC09F2F9660B92E06C028E030E005C06A
:103E400020E130E002C020E132E0F801B7FE07C017
:103E500060817181828193810C5F1F4F06C06081F8
:103E6000718180E090E00E5F1F4FA4010E942A2024
:103E7000A82EA818FB2DFF777F2E76FE0BC0372DBE
:103E80003E7FA51450F474FE0AC072FC08C0372DA2
:103E90003E7E05C0BA2C372D03C0BA2C01C0B52C0C
:103EA00034FF0DC0FE01EA0DF11D8081803311F455
:103EB000397E09C032FF06C0B394B39404C0832F87
:103EC000867809F0B39433FD13C030FF06C05A2C36
:103ED000B31418F4530C5B18B32CB31468F4B70183
:103EE00080E290E03C870E94F21FB3943C85F5CFBE
:103EF000B31410F43B1801C0312C34FF12C0B701C9
:103F000080E390E03C870E94F21F3C8532FF17C09F
:103F100031FD03C088E790E002C088E590E0B7017A
:103F20000CC0832F867859F031FF02C08BE201C0AC
:103F300080E237FD8DE2B70190E00E94F21FA514E8
:103F400038F4B70180E390E00E94F21F5A94F7CF53
:103F5000AA94F401EA0DF11D8081B70190E00E945E
:103F6000F21FA110F5CF332009F451CEB70180E242
:103F700090E00E94F21F3A94F6CFF7018681978174
:103F800002C08FEF9FEF2C960FB6F894DEBF0FBEE6
:103F9000CDBFDF91CF911F910F91FF90EF90DF90F8
:103FA000CF90BF90AF909F908F907F906F905F90D9
:103FB0004F903F902F900895FC0105906150704004
:103FC0000110D8F7809590958E0F9F1F0895FC01E2
:103FD0006150704001900110D8F7809590958E0F38
:103FE0009F1F08950F931F93CF93DF93FB012381AE
:103FF00021FD03C08FEF9FEF28C022FF16C046812E
:104000005781248135814217530744F4A081B1813F
:104010009D012F5F3F4F318320838C932681378111
:104020002F5F3F4F3783268310C0EB01092F182FD6
:104030000084F185E02D1995892BE1F68E819F8111
:1040400001969F838E83812F902FDF91CF911F91B7
:104050000F910895FA01AA27283051F1203181F1FA
:10406000E8946F936E7F6E5F7F4F8F4F9F4FAF4F80
:10407000B1E03ED0B4E03CD0670F781F891F9A1F93
:10408000A11D680F791F8A1F911DA11D6A0F711D47
:10409000811D911DA11D20D009F468943F912AE053
:1040A000269F11243019305D3193DEF6CF0108953B
:1040B000462F4770405D4193B3E00FD0C9F7F6CF6C
:1040C000462F4F70405D4A3318F0495D31FD405234
:1040D000419302D0A9F7EACFB4E0A69597958795CA
:1040E00077956795BA95C9F70097610571050895A9
:1040F0009B01AC010A2E0694579547953795279555
:10410000BA95C9F7620F731F841F951FA01D0895EC
:04411000F894FFCF51
:10411400760258595A4C52110211021102A403A2F8
:10412400037F00310330032F03220321030206021D
:10413400020002000000020000000200000010273C
:1041440000000A00000064000000050004000001F3
:10415400020304050607040031032B0308030500CA
:1041640030032703F70202002F032303E6020000B3
:1041740022031D03D502010021031903C402FFFF1A
:10418400000000000000000031032B0308030100BD
:1041940030032703F70202002F032303E60204007F
:1041A40022031D03D502050021031903C402FFFFE6
:1041B400000000000000256C7500256C64002530AB
:1041C400386C78002530346C78002530326C7800F7
:00000001FF
